{
	"SimpleStorage.sol": {
		"SimpleStorage": {
			"abi": [
				{
					"anonymous": false,
					"inputs": [
						{
							"indexed": false,
							"internalType": "uint256",
							"name": "newNumber",
							"type": "uint256"
						}
					],
					"name": "NumberUpdated",
					"type": "event"
				},
				{
					"inputs": [],
					"name": "getNumber",
					"outputs": [
						{
							"internalType": "uint256",
							"name": "",
							"type": "uint256"
						}
					],
					"stateMutability": "view",
					"type": "function"
				},
				{
					"inputs": [
						{
							"internalType": "uint256",
							"name": "_number",
							"type": "uint256"
						}
					],
					"name": "setNumber",
					"outputs": [],
					"stateMutability": "nonpayable",
					"type": "function"
				}
			],
			"devdoc": {
				"kind": "dev",
				"methods": {},
				"version": 1
			},
			"evm": {
				"assembly": "    /* \"SimpleStorage.sol\":60:653  contract SimpleStorage {... */\n  mstore(0x40, 0x80)\n  callvalue\n  dup1\n  iszero\n  tag_1\n  jumpi\n  revert(0x00, 0x00)\ntag_1:\n  pop\n  dataSize(sub_0)\n  dup1\n  dataOffset(sub_0)\n  0x00\n  codecopy\n  0x00\n  return\nstop\n\nsub_0: assembly {\n        /* \"SimpleStorage.sol\":60:653  contract SimpleStorage {... */\n      mstore(0x40, 0x80)\n      callvalue\n      dup1\n      iszero\n      tag_1\n      jumpi\n      revert(0x00, 0x00)\n    tag_1:\n      pop\n      jumpi(tag_2, lt(calldatasize, 0x04))\n      shr(0xe0, calldataload(0x00))\n      dup1\n      0x3fb5c1cb\n      eq\n      tag_3\n      jumpi\n      dup1\n      0xf2c9ecd8\n      eq\n      tag_4\n      jumpi\n    tag_2:\n      revert(0x00, 0x00)\n        /* \"SimpleStorage.sol\":346:468  function setNumber(uint256 _number) public {... */\n    tag_3:\n      tag_5\n      0x04\n      dup1\n      calldatasize\n      sub\n      dup2\n      add\n      swap1\n      tag_6\n      swap2\n      swap1\n      tag_7\n      jump\t// in\n    tag_6:\n      tag_8\n      jump\t// in\n    tag_5:\n      stop\n        /* \"SimpleStorage.sol\":561:650  function getNumber() public view returns (uint256) {... */\n    tag_4:\n      tag_9\n      tag_10\n      jump\t// in\n    tag_9:\n      mload(0x40)\n      tag_11\n      swap2\n      swap1\n      tag_12\n      jump\t// in\n    tag_11:\n      mload(0x40)\n      dup1\n      swap2\n      sub\n      swap1\n      return\n        /* \"SimpleStorage.sol\":346:468  function setNumber(uint256 _number) public {... */\n    tag_8:\n        /* \"SimpleStorage.sol\":415:422  _number */\n      dup1\n        /* \"SimpleStorage.sol\":400:412  storedNumber */\n      0x00\n        /* \"SimpleStorage.sol\":400:422  storedNumber = _number */\n      dup2\n      swap1\n      sstore\n      pop\n        /* \"SimpleStorage.sol\":438:460  NumberUpdated(_number) */\n      0x939f2783f4b99373bd9b6912aff8f7316ea141b98eb02e47c8a96bdae0d654b3\n        /* \"SimpleStorage.sol\":452:459  _number */\n      dup2\n        /* \"SimpleStorage.sol\":438:460  NumberUpdated(_number) */\n      mload(0x40)\n      tag_14\n      swap2\n      swap1\n      tag_12\n      jump\t// in\n    tag_14:\n      mload(0x40)\n      dup1\n      swap2\n      sub\n      swap1\n      log1\n        /* \"SimpleStorage.sol\":346:468  function setNumber(uint256 _number) public {... */\n      pop\n      jump\t// out\n        /* \"SimpleStorage.sol\":561:650  function getNumber() public view returns (uint256) {... */\n    tag_10:\n        /* \"SimpleStorage.sol\":603:610  uint256 */\n      0x00\n        /* \"SimpleStorage.sol\":630:642  storedNumber */\n      sload(0x00)\n        /* \"SimpleStorage.sol\":623:642  return storedNumber */\n      swap1\n      pop\n        /* \"SimpleStorage.sol\":561:650  function getNumber() public view returns (uint256) {... */\n      swap1\n      jump\t// out\n        /* \"#utility.yul\":88:205   */\n    tag_17:\n        /* \"#utility.yul\":197:198   */\n      0x00\n        /* \"#utility.yul\":194:195   */\n      0x00\n        /* \"#utility.yul\":187:199   */\n      revert\n        /* \"#utility.yul\":334:411   */\n    tag_19:\n        /* \"#utility.yul\":371:378   */\n      0x00\n        /* \"#utility.yul\":400:405   */\n      dup2\n        /* \"#utility.yul\":389:405   */\n      swap1\n      pop\n        /* \"#utility.yul\":334:411   */\n      swap2\n      swap1\n      pop\n      jump\t// out\n        /* \"#utility.yul\":417:539   */\n    tag_20:\n        /* \"#utility.yul\":490:514   */\n      tag_29\n        /* \"#utility.yul\":508:513   */\n      dup2\n        /* \"#utility.yul\":490:514   */\n      tag_19\n      jump\t// in\n    tag_29:\n        /* \"#utility.yul\":483:488   */\n      dup2\n        /* \"#utility.yul\":480:515   */\n      eq\n        /* \"#utility.yul\":470:533   */\n      tag_30\n      jumpi\n        /* \"#utility.yul\":529:530   */\n      0x00\n        /* \"#utility.yul\":526:527   */\n      0x00\n        /* \"#utility.yul\":519:531   */\n      revert\n        /* \"#utility.yul\":470:533   */\n    tag_30:\n        /* \"#utility.yul\":417:539   */\n      pop\n      jump\t// out\n        /* \"#utility.yul\":545:684   */\n    tag_21:\n        /* \"#utility.yul\":591:596   */\n      0x00\n        /* \"#utility.yul\":629:635   */\n      dup2\n        /* \"#utility.yul\":616:636   */\n      calldataload\n        /* \"#utility.yul\":607:636   */\n      swap1\n      pop\n        /* \"#utility.yul\":645:678   */\n      tag_32\n        /* \"#utility.yul\":672:677   */\n      dup2\n        /* \"#utility.yul\":645:678   */\n      tag_20\n      jump\t// in\n    tag_32:\n        /* \"#utility.yul\":545:684   */\n      swap3\n      swap2\n      pop\n      pop\n      jump\t// out\n        /* \"#utility.yul\":690:1019   */\n    tag_7:\n        /* \"#utility.yul\":749:755   */\n      0x00\n        /* \"#utility.yul\":798:800   */\n      0x20\n        /* \"#utility.yul\":786:795   */\n      dup3\n        /* \"#utility.yul\":777:784   */\n      dup5\n        /* \"#utility.yul\":773:796   */\n      sub\n        /* \"#utility.yul\":769:801   */\n      slt\n        /* \"#utility.yul\":766:885   */\n      iszero\n      tag_34\n      jumpi\n        /* \"#utility.yul\":804:883   */\n      tag_35\n      tag_17\n      jump\t// in\n    tag_35:\n        /* \"#utility.yul\":766:885   */\n    tag_34:\n        /* \"#utility.yul\":924:925   */\n      0x00\n        /* \"#utility.yul\":949:1002   */\n      tag_36\n        /* \"#utility.yul\":994:1001   */\n      dup5\n        /* \"#utility.yul\":985:991   */\n      dup3\n        /* \"#utility.yul\":974:983   */\n      dup6\n        /* \"#utility.yul\":970:992   */\n      add\n        /* \"#utility.yul\":949:1002   */\n      tag_21\n      jump\t// in\n    tag_36:\n        /* \"#utility.yul\":939:1002   */\n      swap2\n      pop\n        /* \"#utility.yul\":895:1012   */\n      pop\n        /* \"#utility.yul\":690:1019   */\n      swap3\n      swap2\n      pop\n      pop\n      jump\t// out\n        /* \"#utility.yul\":1025:1143   */\n    tag_22:\n        /* \"#utility.yul\":1112:1136   */\n      tag_38\n        /* \"#utility.yul\":1130:1135   */\n      dup2\n        /* \"#utility.yul\":1112:1136   */\n      tag_19\n      jump\t// in\n    tag_38:\n        /* \"#utility.yul\":1107:1110   */\n      dup3\n        /* \"#utility.yul\":1100:1137   */\n      mstore\n        /* \"#utility.yul\":1025:1143   */\n      pop\n      pop\n      jump\t// out\n        /* \"#utility.yul\":1149:1371   */\n    tag_12:\n        /* \"#utility.yul\":1242:1246   */\n      0x00\n        /* \"#utility.yul\":1280:1282   */\n      0x20\n        /* \"#utility.yul\":1269:1278   */\n      dup3\n        /* \"#utility.yul\":1265:1283   */\n      add\n        /* \"#utility.yul\":1257:1283   */\n      swap1\n      pop\n        /* \"#utility.yul\":1293:1364   */\n      tag_40\n        /* \"#utility.yul\":1361:1362   */\n      0x00\n        /* \"#utility.yul\":1350:1359   */\n      dup4\n        /* \"#utility.yul\":1346:1363   */\n      add\n        /* \"#utility.yul\":1337:1343   */\n      dup5\n        /* \"#utility.yul\":1293:1364   */\n      tag_22\n      jump\t// in\n    tag_40:\n        /* \"#utility.yul\":1149:1371   */\n      swap3\n      swap2\n      pop\n      pop\n      jump\t// out\n\n    auxdata: 0xa26469706673582212201d982bfdb1e433ce65f91490437f0abc80f35069c5926d244057ea8af91d967264736f6c634300081c0033\n}\n",
				"bytecode": {
					"linkReferences": {},
					"object": "6080604052348015600e575f5ffd5b5061017a8061001c5f395ff3fe608060405234801561000f575f5ffd5b5060043610610034575f3560e01c80633fb5c1cb14610038578063f2c9ecd814610054575b5f5ffd5b610052600480360381019061004d91906100f1565b610072565b005b61005c6100b2565b604051610069919061012b565b60405180910390f35b805f819055507f939f2783f4b99373bd9b6912aff8f7316ea141b98eb02e47c8a96bdae0d654b3816040516100a7919061012b565b60405180910390a150565b5f5f54905090565b5f5ffd5b5f819050919050565b6100d0816100be565b81146100da575f5ffd5b50565b5f813590506100eb816100c7565b92915050565b5f60208284031215610106576101056100ba565b5b5f610113848285016100dd565b91505092915050565b610125816100be565b82525050565b5f60208201905061013e5f83018461011c565b9291505056fea26469706673582212201d982bfdb1e433ce65f91490437f0abc80f35069c5926d244057ea8af91d967264736f6c634300081c0033",
					"opcodes": "PUSH1 0x80 PUSH1 0x40 MSTORE CALLVALUE DUP1 ISZERO PUSH1 0xE JUMPI PUSH0 PUSH0 REVERT JUMPDEST POP PUSH2 0x17A DUP1 PUSH2 0x1C PUSH0 CODECOPY PUSH0 RETURN INVALID PUSH1 0x80 PUSH1 0x40 MSTORE CALLVALUE DUP1 ISZERO PUSH2 0xF JUMPI PUSH0 PUSH0 REVERT JUMPDEST POP PUSH1 0x4 CALLDATASIZE LT PUSH2 0x34 JUMPI PUSH0 CALLDATALOAD PUSH1 0xE0 SHR DUP1 PUSH4 0x3FB5C1CB EQ PUSH2 0x38 JUMPI DUP1 PUSH4 0xF2C9ECD8 EQ PUSH2 0x54 JUMPI JUMPDEST PUSH0 PUSH0 REVERT JUMPDEST PUSH2 0x52 PUSH1 0x4 DUP1 CALLDATASIZE SUB DUP2 ADD SWAP1 PUSH2 0x4D SWAP2 SWAP1 PUSH2 0xF1 JUMP JUMPDEST PUSH2 0x72 JUMP JUMPDEST STOP JUMPDEST PUSH2 0x5C PUSH2 0xB2 JUMP JUMPDEST PUSH1 0x40 MLOAD PUSH2 0x69 SWAP2 SWAP1 PUSH2 0x12B JUMP JUMPDEST PUSH1 0x40 MLOAD DUP1 SWAP2 SUB SWAP1 RETURN JUMPDEST DUP1 PUSH0 DUP2 SWAP1 SSTORE POP PUSH32 0x939F2783F4B99373BD9B6912AFF8F7316EA141B98EB02E47C8A96BDAE0D654B3 DUP2 PUSH1 0x40 MLOAD PUSH2 0xA7 SWAP2 SWAP1 PUSH2 0x12B JUMP JUMPDEST PUSH1 0x40 MLOAD DUP1 SWAP2 SUB SWAP1 LOG1 POP JUMP JUMPDEST PUSH0 PUSH0 SLOAD SWAP1 POP SWAP1 JUMP JUMPDEST PUSH0 PUSH0 REVERT JUMPDEST PUSH0 DUP2 SWAP1 POP SWAP2 SWAP1 POP JUMP JUMPDEST PUSH2 0xD0 DUP2 PUSH2 0xBE JUMP JUMPDEST DUP2 EQ PUSH2 0xDA JUMPI PUSH0 PUSH0 REVERT JUMPDEST POP JUMP JUMPDEST PUSH0 DUP2 CALLDATALOAD SWAP1 POP PUSH2 0xEB DUP2 PUSH2 0xC7 JUMP JUMPDEST SWAP3 SWAP2 POP POP JUMP JUMPDEST PUSH0 PUSH1 0x20 DUP3 DUP5 SUB SLT ISZERO PUSH2 0x106 JUMPI PUSH2 0x105 PUSH2 0xBA JUMP JUMPDEST JUMPDEST PUSH0 PUSH2 0x113 DUP5 DUP3 DUP6 ADD PUSH2 0xDD JUMP JUMPDEST SWAP2 POP POP SWAP3 SWAP2 POP POP JUMP JUMPDEST PUSH2 0x125 DUP2 PUSH2 0xBE JUMP JUMPDEST DUP3 MSTORE POP POP JUMP JUMPDEST PUSH0 PUSH1 0x20 DUP3 ADD SWAP1 POP PUSH2 0x13E PUSH0 DUP4 ADD DUP5 PUSH2 0x11C JUMP JUMPDEST SWAP3 SWAP2 POP POP JUMP INVALID LOG2 PUSH5 0x6970667358 0x22 SLT KECCAK256 SAR SWAP9 0x2B REVERT 0xB1 0xE4 CALLER 0xCE PUSH6 0xF91490437F0A 0xBC DUP1 RETURN POP PUSH10 0xC5926D244057EA8AF91D SWAP7 PUSH19 0x64736F6C634300081C00330000000000000000 "
				},
				"gasEstimates": {
					"creation": {
						"codeDepositCost": "75600",
						"executionCost": "121",
						"totalCost": "75721"
					},
					"external": {
						"getNumber()": "2431",
						"setNumber(uint256)": "infinite"
					}
				},
				"methodIdentifiers": {
					"getNumber()": "f2c9ecd8",
					"setNumber(uint256)": "3fb5c1cb"
				}
			},
			"storageLayout": {
				"storage": [
					{
						"astId": 3,
						"contract": "SimpleStorage.sol:SimpleStorage",
						"label": "storedNumber",
						"offset": 0,
						"slot": "0",
						"type": "t_uint256"
					}
				],
				"types": {
					"t_uint256": {
						"encoding": "inplace",
						"label": "uint256",
						"numberOfBytes": "32"
					}
				}
			},
			"userdoc": {
				"kind": "user",
				"methods": {},
				"version": 1
			}
		}
	}
}