{
	"Escrow.sol": {
		"SimpleEscrow": {
			"abi": [
				{
					"inputs": [
						{
							"internalType": "address",
							"name": "_arbiter",
							"type": "address"
						},
						{
							"internalType": "address",
							"name": "_beneficiary",
							"type": "address"
						}
					],
					"stateMutability": "payable",
					"type": "constructor"
				},
				{
					"anonymous": false,
					"inputs": [
						{
							"indexed": true,
							"internalType": "address",
							"name": "arbiter",
							"type": "address"
						}
					],
					"name": "Approved",
					"type": "event"
				},
				{
					"anonymous": false,
					"inputs": [
						{
							"indexed": true,
							"internalType": "address",
							"name": "sender",
							"type": "address"
						},
						{
							"indexed": false,
							"internalType": "uint256",
							"name": "amount",
							"type": "uint256"
						}
					],
					"name": "Deposited",
					"type": "event"
				},
				{
					"inputs": [],
					"name": "approve",
					"outputs": [],
					"stateMutability": "nonpayable",
					"type": "function"
				},
				{
					"inputs": [],
					"name": "arbiter",
					"outputs": [
						{
							"internalType": "address",
							"name": "",
							"type": "address"
						}
					],
					"stateMutability": "view",
					"type": "function"
				},
				{
					"inputs": [],
					"name": "beneficiary",
					"outputs": [
						{
							"internalType": "address",
							"name": "",
							"type": "address"
						}
					],
					"stateMutability": "view",
					"type": "function"
				},
				{
					"inputs": [],
					"name": "isApproved",
					"outputs": [
						{
							"internalType": "bool",
							"name": "",
							"type": "bool"
						}
					],
					"stateMutability": "view",
					"type": "function"
				}
			],
			"devdoc": {
				"kind": "dev",
				"methods": {},
				"version": 1
			},
			"evm": {
				"assembly": "    /* \"Escrow.sol\":57:866  contract SimpleEscrow {... */\n  mstore(0x40, 0x80)\n    /* \"Escrow.sol\":281:519  constructor(address _arbiter, address _beneficiary) payable {... */\n  mload(0x40)\n  sub(codesize, bytecodeSize)\n  dup1\n  bytecodeSize\n  dup4\n  codecopy\n  dup2\n  dup2\n  add\n  0x40\n  mstore\n  dup2\n  add\n  swap1\n  tag_1\n  swap2\n  swap1\n  tag_2\n  jump\t// in\ntag_1:\n    /* \"Escrow.sol\":371:372  0 */\n  0x00\n    /* \"Escrow.sol\":359:368  msg.value */\n  callvalue\n    /* \"Escrow.sol\":359:372  msg.value > 0 */\n  gt\n    /* \"Escrow.sol\":351:401  require(msg.value > 0, \"Deposit must be non-zero\") */\n  tag_5\n  jumpi\n  mload(0x40)\n  0x08c379a000000000000000000000000000000000000000000000000000000000\n  dup2\n  mstore\n  0x04\n  add\n  tag_6\n  swap1\n  tag_7\n  jump\t// in\ntag_6:\n  mload(0x40)\n  dup1\n  swap2\n  sub\n  swap1\n  revert\ntag_5:\n    /* \"Escrow.sol\":421:429  _arbiter */\n  dup2\n    /* \"Escrow.sol\":411:418  arbiter */\n  0x00\n  dup1\n    /* \"Escrow.sol\":411:429  arbiter = _arbiter */\n  0x0100\n  exp\n  dup2\n  sload\n  dup2\n  0xffffffffffffffffffffffffffffffffffffffff\n  mul\n  not\n  and\n  swap1\n  dup4\n  0xffffffffffffffffffffffffffffffffffffffff\n  and\n  mul\n  or\n  swap1\n  sstore\n  pop\n    /* \"Escrow.sol\":453:465  _beneficiary */\n  dup1\n    /* \"Escrow.sol\":439:450  beneficiary */\n  0x01\n  0x00\n    /* \"Escrow.sol\":439:465  beneficiary = _beneficiary */\n  0x0100\n  exp\n  dup2\n  sload\n  dup2\n  0xffffffffffffffffffffffffffffffffffffffff\n  mul\n  not\n  and\n  swap1\n  dup4\n  0xffffffffffffffffffffffffffffffffffffffff\n  and\n  mul\n  or\n  swap1\n  sstore\n  pop\n    /* \"Escrow.sol\":490:500  msg.sender */\n  caller\n    /* \"Escrow.sol\":480:512  Deposited(msg.sender, msg.value) */\n  0xffffffffffffffffffffffffffffffffffffffff\n  and\n  0x2da466a7b24304f47e87fa2e1e5a81b9831ce54fec19055ce277ca2f39ba42c4\n    /* \"Escrow.sol\":502:511  msg.value */\n  callvalue\n    /* \"Escrow.sol\":480:512  Deposited(msg.sender, msg.value) */\n  mload(0x40)\n  tag_8\n  swap2\n  swap1\n  tag_9\n  jump\t// in\ntag_8:\n  mload(0x40)\n  dup1\n  swap2\n  sub\n  swap1\n  log2\n    /* \"Escrow.sol\":281:519  constructor(address _arbiter, address _beneficiary) payable {... */\n  pop\n  pop\n    /* \"Escrow.sol\":57:866  contract SimpleEscrow {... */\n  jump(tag_10)\n    /* \"#utility.yul\":88:205   */\ntag_12:\n    /* \"#utility.yul\":197:198   */\n  0x00\n    /* \"#utility.yul\":194:195   */\n  dup1\n    /* \"#utility.yul\":187:199   */\n  revert\n    /* \"#utility.yul\":334:460   */\ntag_14:\n    /* \"#utility.yul\":371:378   */\n  0x00\n    /* \"#utility.yul\":411:453   */\n  0xffffffffffffffffffffffffffffffffffffffff\n    /* \"#utility.yul\":404:409   */\n  dup3\n    /* \"#utility.yul\":400:454   */\n  and\n    /* \"#utility.yul\":389:454   */\n  swap1\n  pop\n    /* \"#utility.yul\":334:460   */\n  swap2\n  swap1\n  pop\n  jump\t// out\n    /* \"#utility.yul\":466:562   */\ntag_15:\n    /* \"#utility.yul\":503:510   */\n  0x00\n    /* \"#utility.yul\":532:556   */\n  tag_29\n    /* \"#utility.yul\":550:555   */\n  dup3\n    /* \"#utility.yul\":532:556   */\n  tag_14\n  jump\t// in\ntag_29:\n    /* \"#utility.yul\":521:556   */\n  swap1\n  pop\n    /* \"#utility.yul\":466:562   */\n  swap2\n  swap1\n  pop\n  jump\t// out\n    /* \"#utility.yul\":568:690   */\ntag_16:\n    /* \"#utility.yul\":641:665   */\n  tag_31\n    /* \"#utility.yul\":659:664   */\n  dup2\n    /* \"#utility.yul\":641:665   */\n  tag_15\n  jump\t// in\ntag_31:\n    /* \"#utility.yul\":634:639   */\n  dup2\n    /* \"#utility.yul\":631:666   */\n  eq\n    /* \"#utility.yul\":621:684   */\n  tag_32\n  jumpi\n    /* \"#utility.yul\":680:681   */\n  0x00\n    /* \"#utility.yul\":677:678   */\n  dup1\n    /* \"#utility.yul\":670:682   */\n  revert\n    /* \"#utility.yul\":621:684   */\ntag_32:\n    /* \"#utility.yul\":568:690   */\n  pop\n  jump\t// out\n    /* \"#utility.yul\":696:839   */\ntag_17:\n    /* \"#utility.yul\":753:758   */\n  0x00\n    /* \"#utility.yul\":784:790   */\n  dup2\n    /* \"#utility.yul\":778:791   */\n  mload\n    /* \"#utility.yul\":769:791   */\n  swap1\n  pop\n    /* \"#utility.yul\":800:833   */\n  tag_34\n    /* \"#utility.yul\":827:832   */\n  dup2\n    /* \"#utility.yul\":800:833   */\n  tag_16\n  jump\t// in\ntag_34:\n    /* \"#utility.yul\":696:839   */\n  swap3\n  swap2\n  pop\n  pop\n  jump\t// out\n    /* \"#utility.yul\":845:1352   */\ntag_2:\n    /* \"#utility.yul\":924:930   */\n  0x00\n    /* \"#utility.yul\":932:938   */\n  dup1\n    /* \"#utility.yul\":981:983   */\n  0x40\n    /* \"#utility.yul\":969:978   */\n  dup4\n    /* \"#utility.yul\":960:967   */\n  dup6\n    /* \"#utility.yul\":956:979   */\n  sub\n    /* \"#utility.yul\":952:984   */\n  slt\n    /* \"#utility.yul\":949:1068   */\n  iszero\n  tag_36\n  jumpi\n    /* \"#utility.yul\":987:1066   */\n  tag_37\n  tag_12\n  jump\t// in\ntag_37:\n    /* \"#utility.yul\":949:1068   */\ntag_36:\n    /* \"#utility.yul\":1107:1108   */\n  0x00\n    /* \"#utility.yul\":1132:1196   */\n  tag_38\n    /* \"#utility.yul\":1188:1195   */\n  dup6\n    /* \"#utility.yul\":1179:1185   */\n  dup3\n    /* \"#utility.yul\":1168:1177   */\n  dup7\n    /* \"#utility.yul\":1164:1186   */\n  add\n    /* \"#utility.yul\":1132:1196   */\n  tag_17\n  jump\t// in\ntag_38:\n    /* \"#utility.yul\":1122:1196   */\n  swap3\n  pop\n    /* \"#utility.yul\":1078:1206   */\n  pop\n    /* \"#utility.yul\":1245:1247   */\n  0x20\n    /* \"#utility.yul\":1271:1335   */\n  tag_39\n    /* \"#utility.yul\":1327:1334   */\n  dup6\n    /* \"#utility.yul\":1318:1324   */\n  dup3\n    /* \"#utility.yul\":1307:1316   */\n  dup7\n    /* \"#utility.yul\":1303:1325   */\n  add\n    /* \"#utility.yul\":1271:1335   */\n  tag_17\n  jump\t// in\ntag_39:\n    /* \"#utility.yul\":1261:1335   */\n  swap2\n  pop\n    /* \"#utility.yul\":1216:1345   */\n  pop\n    /* \"#utility.yul\":845:1352   */\n  swap3\n  pop\n  swap3\n  swap1\n  pop\n  jump\t// out\n    /* \"#utility.yul\":1358:1527   */\ntag_18:\n    /* \"#utility.yul\":1442:1453   */\n  0x00\n    /* \"#utility.yul\":1476:1482   */\n  dup3\n    /* \"#utility.yul\":1471:1474   */\n  dup3\n    /* \"#utility.yul\":1464:1483   */\n  mstore\n    /* \"#utility.yul\":1516:1520   */\n  0x20\n    /* \"#utility.yul\":1511:1514   */\n  dup3\n    /* \"#utility.yul\":1507:1521   */\n  add\n    /* \"#utility.yul\":1492:1521   */\n  swap1\n  pop\n    /* \"#utility.yul\":1358:1527   */\n  swap3\n  swap2\n  pop\n  pop\n  jump\t// out\n    /* \"#utility.yul\":1533:1707   */\ntag_19:\n    /* \"#utility.yul\":1673:1699   */\n  0x4465706f736974206d757374206265206e6f6e2d7a65726f0000000000000000\n    /* \"#utility.yul\":1669:1670   */\n  0x00\n    /* \"#utility.yul\":1661:1667   */\n  dup3\n    /* \"#utility.yul\":1657:1671   */\n  add\n    /* \"#utility.yul\":1650:1700   */\n  mstore\n    /* \"#utility.yul\":1533:1707   */\n  pop\n  jump\t// out\n    /* \"#utility.yul\":1713:2079   */\ntag_20:\n    /* \"#utility.yul\":1855:1858   */\n  0x00\n    /* \"#utility.yul\":1876:1943   */\n  tag_43\n    /* \"#utility.yul\":1940:1942   */\n  0x18\n    /* \"#utility.yul\":1935:1938   */\n  dup4\n    /* \"#utility.yul\":1876:1943   */\n  tag_18\n  jump\t// in\ntag_43:\n    /* \"#utility.yul\":1869:1943   */\n  swap2\n  pop\n    /* \"#utility.yul\":1952:2045   */\n  tag_44\n    /* \"#utility.yul\":2041:2044   */\n  dup3\n    /* \"#utility.yul\":1952:2045   */\n  tag_19\n  jump\t// in\ntag_44:\n    /* \"#utility.yul\":2070:2072   */\n  0x20\n    /* \"#utility.yul\":2065:2068   */\n  dup3\n    /* \"#utility.yul\":2061:2073   */\n  add\n    /* \"#utility.yul\":2054:2073   */\n  swap1\n  pop\n    /* \"#utility.yul\":1713:2079   */\n  swap2\n  swap1\n  pop\n  jump\t// out\n    /* \"#utility.yul\":2085:2504   */\ntag_7:\n    /* \"#utility.yul\":2251:2255   */\n  0x00\n    /* \"#utility.yul\":2289:2291   */\n  0x20\n    /* \"#utility.yul\":2278:2287   */\n  dup3\n    /* \"#utility.yul\":2274:2292   */\n  add\n    /* \"#utility.yul\":2266:2292   */\n  swap1\n  pop\n    /* \"#utility.yul\":2338:2347   */\n  dup2\n    /* \"#utility.yul\":2332:2336   */\n  dup2\n    /* \"#utility.yul\":2328:2348   */\n  sub\n    /* \"#utility.yul\":2324:2325   */\n  0x00\n    /* \"#utility.yul\":2313:2322   */\n  dup4\n    /* \"#utility.yul\":2309:2326   */\n  add\n    /* \"#utility.yul\":2302:2349   */\n  mstore\n    /* \"#utility.yul\":2366:2497   */\n  tag_46\n    /* \"#utility.yul\":2492:2496   */\n  dup2\n    /* \"#utility.yul\":2366:2497   */\n  tag_20\n  jump\t// in\ntag_46:\n    /* \"#utility.yul\":2358:2497   */\n  swap1\n  pop\n    /* \"#utility.yul\":2085:2504   */\n  swap2\n  swap1\n  pop\n  jump\t// out\n    /* \"#utility.yul\":2510:2587   */\ntag_21:\n    /* \"#utility.yul\":2547:2554   */\n  0x00\n    /* \"#utility.yul\":2576:2581   */\n  dup2\n    /* \"#utility.yul\":2565:2581   */\n  swap1\n  pop\n    /* \"#utility.yul\":2510:2587   */\n  swap2\n  swap1\n  pop\n  jump\t// out\n    /* \"#utility.yul\":2593:2711   */\ntag_22:\n    /* \"#utility.yul\":2680:2704   */\n  tag_49\n    /* \"#utility.yul\":2698:2703   */\n  dup2\n    /* \"#utility.yul\":2680:2704   */\n  tag_21\n  jump\t// in\ntag_49:\n    /* \"#utility.yul\":2675:2678   */\n  dup3\n    /* \"#utility.yul\":2668:2705   */\n  mstore\n    /* \"#utility.yul\":2593:2711   */\n  pop\n  pop\n  jump\t// out\n    /* \"#utility.yul\":2717:2939   */\ntag_9:\n    /* \"#utility.yul\":2810:2814   */\n  0x00\n    /* \"#utility.yul\":2848:2850   */\n  0x20\n    /* \"#utility.yul\":2837:2846   */\n  dup3\n    /* \"#utility.yul\":2833:2851   */\n  add\n    /* \"#utility.yul\":2825:2851   */\n  swap1\n  pop\n    /* \"#utility.yul\":2861:2932   */\n  tag_51\n    /* \"#utility.yul\":2929:2930   */\n  0x00\n    /* \"#utility.yul\":2918:2927   */\n  dup4\n    /* \"#utility.yul\":2914:2931   */\n  add\n    /* \"#utility.yul\":2905:2911   */\n  dup5\n    /* \"#utility.yul\":2861:2932   */\n  tag_22\n  jump\t// in\ntag_51:\n    /* \"#utility.yul\":2717:2939   */\n  swap3\n  swap2\n  pop\n  pop\n  jump\t// out\n    /* \"Escrow.sol\":57:866  contract SimpleEscrow {... */\ntag_10:\n  dataSize(sub_0)\n  dup1\n  dataOffset(sub_0)\n  0x00\n  codecopy\n  0x00\n  return\nstop\n\nsub_0: assembly {\n        /* \"Escrow.sol\":57:866  contract SimpleEscrow {... */\n      mstore(0x40, 0x80)\n      callvalue\n      dup1\n      iszero\n      tag_1\n      jumpi\n      0x00\n      dup1\n      revert\n    tag_1:\n      pop\n      jumpi(tag_2, lt(calldatasize, 0x04))\n      shr(0xe0, calldataload(0x00))\n      dup1\n      0x12424e3f\n      eq\n      tag_3\n      jumpi\n      dup1\n      0x28f371aa\n      eq\n      tag_4\n      jumpi\n      dup1\n      0x38af3eed\n      eq\n      tag_5\n      jumpi\n      dup1\n      0xfe25e00a\n      eq\n      tag_6\n      jumpi\n    tag_2:\n      0x00\n      dup1\n      revert\n        /* \"Escrow.sol\":525:864  function approve() external {... */\n    tag_3:\n      tag_7\n      tag_8\n      jump\t// in\n    tag_7:\n      stop\n        /* \"Escrow.sol\":145:167  bool public isApproved */\n    tag_4:\n      tag_9\n      tag_10\n      jump\t// in\n    tag_9:\n      mload(0x40)\n      tag_11\n      swap2\n      swap1\n      tag_12\n      jump\t// in\n    tag_11:\n      mload(0x40)\n      dup1\n      swap2\n      sub\n      swap1\n      return\n        /* \"Escrow.sol\":113:139  address public beneficiary */\n    tag_5:\n      tag_13\n      tag_14\n      jump\t// in\n    tag_13:\n      mload(0x40)\n      tag_15\n      swap2\n      swap1\n      tag_16\n      jump\t// in\n    tag_15:\n      mload(0x40)\n      dup1\n      swap2\n      sub\n      swap1\n      return\n        /* \"Escrow.sol\":85:107  address public arbiter */\n    tag_6:\n      tag_17\n      tag_18\n      jump\t// in\n    tag_17:\n      mload(0x40)\n      tag_19\n      swap2\n      swap1\n      tag_16\n      jump\t// in\n    tag_19:\n      mload(0x40)\n      dup1\n      swap2\n      sub\n      swap1\n      return\n        /* \"Escrow.sol\":525:864  function approve() external {... */\n    tag_8:\n        /* \"Escrow.sol\":585:592  arbiter */\n      0x00\n      dup1\n      sload\n      swap1\n      0x0100\n      exp\n      swap1\n      div\n      0xffffffffffffffffffffffffffffffffffffffff\n      and\n        /* \"Escrow.sol\":571:592  msg.sender == arbiter */\n      0xffffffffffffffffffffffffffffffffffffffff\n      and\n        /* \"Escrow.sol\":571:581  msg.sender */\n      caller\n        /* \"Escrow.sol\":571:592  msg.sender == arbiter */\n      0xffffffffffffffffffffffffffffffffffffffff\n      and\n      eq\n        /* \"Escrow.sol\":563:621  require(msg.sender == arbiter, \"Only arbiter can approve\") */\n      tag_21\n      jumpi\n      mload(0x40)\n      0x08c379a000000000000000000000000000000000000000000000000000000000\n      dup2\n      mstore\n      0x04\n      add\n      tag_22\n      swap1\n      tag_23\n      jump\t// in\n    tag_22:\n      mload(0x40)\n      dup1\n      swap2\n      sub\n      swap1\n      revert\n    tag_21:\n        /* \"Escrow.sol\":640:650  isApproved */\n      0x01\n      0x14\n      swap1\n      sload\n      swap1\n      0x0100\n      exp\n      swap1\n      div\n      0xff\n      and\n        /* \"Escrow.sol\":639:650  !isApproved */\n      iszero\n        /* \"Escrow.sol\":631:671  require(!isApproved, \"Already approved\") */\n      tag_24\n      jumpi\n      mload(0x40)\n      0x08c379a000000000000000000000000000000000000000000000000000000000\n      dup2\n      mstore\n      0x04\n      add\n      tag_25\n      swap1\n      tag_26\n      jump\t// in\n    tag_25:\n      mload(0x40)\n      dup1\n      swap2\n      sub\n      swap1\n      revert\n    tag_24:\n        /* \"Escrow.sol\":694:698  true */\n      0x01\n        /* \"Escrow.sol\":681:691  isApproved */\n      dup1\n      0x14\n        /* \"Escrow.sol\":681:698  isApproved = true */\n      0x0100\n      exp\n      dup2\n      sload\n      dup2\n      0xff\n      mul\n      not\n      and\n      swap1\n      dup4\n      iszero\n      iszero\n      mul\n      or\n      swap1\n      sstore\n      pop\n        /* \"Escrow.sol\":709:721  bool success */\n      0x00\n        /* \"Escrow.sol\":727:738  beneficiary */\n      0x01\n      0x00\n      swap1\n      sload\n      swap1\n      0x0100\n      exp\n      swap1\n      div\n      0xffffffffffffffffffffffffffffffffffffffff\n      and\n        /* \"Escrow.sol\":727:743  beneficiary.call */\n      0xffffffffffffffffffffffffffffffffffffffff\n      and\n        /* \"Escrow.sol\":751:772  address(this).balance */\n      selfbalance\n        /* \"Escrow.sol\":727:777  beneficiary.call{value: address(this).balance}(\"\") */\n      mload(0x40)\n      tag_27\n      swap1\n      tag_28\n      jump\t// in\n    tag_27:\n      0x00\n      mload(0x40)\n      dup1\n      dup4\n      sub\n      dup2\n      dup6\n      dup8\n      gas\n      call\n      swap3\n      pop\n      pop\n      pop\n      returndatasize\n      dup1\n      0x00\n      dup2\n      eq\n      tag_31\n      jumpi\n      mload(0x40)\n      swap2\n      pop\n      and(add(returndatasize, 0x3f), not(0x1f))\n      dup3\n      add\n      0x40\n      mstore\n      returndatasize\n      dup3\n      mstore\n      returndatasize\n      0x00\n      0x20\n      dup5\n      add\n      returndatacopy\n      jump(tag_30)\n    tag_31:\n      0x60\n      swap2\n      pop\n    tag_30:\n      pop\n        /* \"Escrow.sol\":708:777  (bool success, ) = beneficiary.call{value: address(this).balance}(\"\") */\n      pop\n      swap1\n      pop\n        /* \"Escrow.sol\":795:802  success */\n      dup1\n        /* \"Escrow.sol\":787:822  require(success, \"Transfer failed\") */\n      tag_32\n      jumpi\n      mload(0x40)\n      0x08c379a000000000000000000000000000000000000000000000000000000000\n      dup2\n      mstore\n      0x04\n      add\n      tag_33\n      swap1\n      tag_34\n      jump\t// in\n    tag_33:\n      mload(0x40)\n      dup1\n      swap2\n      sub\n      swap1\n      revert\n    tag_32:\n        /* \"Escrow.sol\":846:856  msg.sender */\n      caller\n        /* \"Escrow.sol\":837:857  Approved(msg.sender) */\n      0xffffffffffffffffffffffffffffffffffffffff\n      and\n      0x5d91bd0cecc45fef102af61de92c5462fadc884a5ce9d21c15e8a85198f2349e\n      mload(0x40)\n      mload(0x40)\n      dup1\n      swap2\n      sub\n      swap1\n      log2\n        /* \"Escrow.sol\":553:864  {... */\n      pop\n        /* \"Escrow.sol\":525:864  function approve() external {... */\n      jump\t// out\n        /* \"Escrow.sol\":145:167  bool public isApproved */\n    tag_10:\n      0x01\n      0x14\n      swap1\n      sload\n      swap1\n      0x0100\n      exp\n      swap1\n      div\n      0xff\n      and\n      dup2\n      jump\t// out\n        /* \"Escrow.sol\":113:139  address public beneficiary */\n    tag_14:\n      0x01\n      0x00\n      swap1\n      sload\n      swap1\n      0x0100\n      exp\n      swap1\n      div\n      0xffffffffffffffffffffffffffffffffffffffff\n      and\n      dup2\n      jump\t// out\n        /* \"Escrow.sol\":85:107  address public arbiter */\n    tag_18:\n      0x00\n      dup1\n      sload\n      swap1\n      0x0100\n      exp\n      swap1\n      div\n      0xffffffffffffffffffffffffffffffffffffffff\n      and\n      dup2\n      jump\t// out\n        /* \"#utility.yul\":7:97   */\n    tag_35:\n        /* \"#utility.yul\":41:48   */\n      0x00\n        /* \"#utility.yul\":84:89   */\n      dup2\n        /* \"#utility.yul\":77:90   */\n      iszero\n        /* \"#utility.yul\":70:91   */\n      iszero\n        /* \"#utility.yul\":59:91   */\n      swap1\n      pop\n        /* \"#utility.yul\":7:97   */\n      swap2\n      swap1\n      pop\n      jump\t// out\n        /* \"#utility.yul\":103:212   */\n    tag_36:\n        /* \"#utility.yul\":184:205   */\n      tag_53\n        /* \"#utility.yul\":199:204   */\n      dup2\n        /* \"#utility.yul\":184:205   */\n      tag_35\n      jump\t// in\n    tag_53:\n        /* \"#utility.yul\":179:182   */\n      dup3\n        /* \"#utility.yul\":172:206   */\n      mstore\n        /* \"#utility.yul\":103:212   */\n      pop\n      pop\n      jump\t// out\n        /* \"#utility.yul\":218:428   */\n    tag_12:\n        /* \"#utility.yul\":305:309   */\n      0x00\n        /* \"#utility.yul\":343:345   */\n      0x20\n        /* \"#utility.yul\":332:341   */\n      dup3\n        /* \"#utility.yul\":328:346   */\n      add\n        /* \"#utility.yul\":320:346   */\n      swap1\n      pop\n        /* \"#utility.yul\":356:421   */\n      tag_55\n        /* \"#utility.yul\":418:419   */\n      0x00\n        /* \"#utility.yul\":407:416   */\n      dup4\n        /* \"#utility.yul\":403:420   */\n      add\n        /* \"#utility.yul\":394:400   */\n      dup5\n        /* \"#utility.yul\":356:421   */\n      tag_36\n      jump\t// in\n    tag_55:\n        /* \"#utility.yul\":218:428   */\n      swap3\n      swap2\n      pop\n      pop\n      jump\t// out\n        /* \"#utility.yul\":434:560   */\n    tag_37:\n        /* \"#utility.yul\":471:478   */\n      0x00\n        /* \"#utility.yul\":511:553   */\n      0xffffffffffffffffffffffffffffffffffffffff\n        /* \"#utility.yul\":504:509   */\n      dup3\n        /* \"#utility.yul\":500:554   */\n      and\n        /* \"#utility.yul\":489:554   */\n      swap1\n      pop\n        /* \"#utility.yul\":434:560   */\n      swap2\n      swap1\n      pop\n      jump\t// out\n        /* \"#utility.yul\":566:662   */\n    tag_38:\n        /* \"#utility.yul\":603:610   */\n      0x00\n        /* \"#utility.yul\":632:656   */\n      tag_58\n        /* \"#utility.yul\":650:655   */\n      dup3\n        /* \"#utility.yul\":632:656   */\n      tag_37\n      jump\t// in\n    tag_58:\n        /* \"#utility.yul\":621:656   */\n      swap1\n      pop\n        /* \"#utility.yul\":566:662   */\n      swap2\n      swap1\n      pop\n      jump\t// out\n        /* \"#utility.yul\":668:786   */\n    tag_39:\n        /* \"#utility.yul\":755:779   */\n      tag_60\n        /* \"#utility.yul\":773:778   */\n      dup2\n        /* \"#utility.yul\":755:779   */\n      tag_38\n      jump\t// in\n    tag_60:\n        /* \"#utility.yul\":750:753   */\n      dup3\n        /* \"#utility.yul\":743:780   */\n      mstore\n        /* \"#utility.yul\":668:786   */\n      pop\n      pop\n      jump\t// out\n        /* \"#utility.yul\":792:1014   */\n    tag_16:\n        /* \"#utility.yul\":885:889   */\n      0x00\n        /* \"#utility.yul\":923:925   */\n      0x20\n        /* \"#utility.yul\":912:921   */\n      dup3\n        /* \"#utility.yul\":908:926   */\n      add\n        /* \"#utility.yul\":900:926   */\n      swap1\n      pop\n        /* \"#utility.yul\":936:1007   */\n      tag_62\n        /* \"#utility.yul\":1004:1005   */\n      0x00\n        /* \"#utility.yul\":993:1002   */\n      dup4\n        /* \"#utility.yul\":989:1006   */\n      add\n        /* \"#utility.yul\":980:986   */\n      dup5\n        /* \"#utility.yul\":936:1007   */\n      tag_39\n      jump\t// in\n    tag_62:\n        /* \"#utility.yul\":792:1014   */\n      swap3\n      swap2\n      pop\n      pop\n      jump\t// out\n        /* \"#utility.yul\":1020:1189   */\n    tag_40:\n        /* \"#utility.yul\":1104:1115   */\n      0x00\n        /* \"#utility.yul\":1138:1144   */\n      dup3\n        /* \"#utility.yul\":1133:1136   */\n      dup3\n        /* \"#utility.yul\":1126:1145   */\n      mstore\n        /* \"#utility.yul\":1178:1182   */\n      0x20\n        /* \"#utility.yul\":1173:1176   */\n      dup3\n        /* \"#utility.yul\":1169:1183   */\n      add\n        /* \"#utility.yul\":1154:1183   */\n      swap1\n      pop\n        /* \"#utility.yul\":1020:1189   */\n      swap3\n      swap2\n      pop\n      pop\n      jump\t// out\n        /* \"#utility.yul\":1195:1369   */\n    tag_41:\n        /* \"#utility.yul\":1335:1361   */\n      0x4f6e6c7920617262697465722063616e20617070726f76650000000000000000\n        /* \"#utility.yul\":1331:1332   */\n      0x00\n        /* \"#utility.yul\":1323:1329   */\n      dup3\n        /* \"#utility.yul\":1319:1333   */\n      add\n        /* \"#utility.yul\":1312:1362   */\n      mstore\n        /* \"#utility.yul\":1195:1369   */\n      pop\n      jump\t// out\n        /* \"#utility.yul\":1375:1741   */\n    tag_42:\n        /* \"#utility.yul\":1517:1520   */\n      0x00\n        /* \"#utility.yul\":1538:1605   */\n      tag_66\n        /* \"#utility.yul\":1602:1604   */\n      0x18\n        /* \"#utility.yul\":1597:1600   */\n      dup4\n        /* \"#utility.yul\":1538:1605   */\n      tag_40\n      jump\t// in\n    tag_66:\n        /* \"#utility.yul\":1531:1605   */\n      swap2\n      pop\n        /* \"#utility.yul\":1614:1707   */\n      tag_67\n        /* \"#utility.yul\":1703:1706   */\n      dup3\n        /* \"#utility.yul\":1614:1707   */\n      tag_41\n      jump\t// in\n    tag_67:\n        /* \"#utility.yul\":1732:1734   */\n      0x20\n        /* \"#utility.yul\":1727:1730   */\n      dup3\n        /* \"#utility.yul\":1723:1735   */\n      add\n        /* \"#utility.yul\":1716:1735   */\n      swap1\n      pop\n        /* \"#utility.yul\":1375:1741   */\n      swap2\n      swap1\n      pop\n      jump\t// out\n        /* \"#utility.yul\":1747:2166   */\n    tag_23:\n        /* \"#utility.yul\":1913:1917   */\n      0x00\n        /* \"#utility.yul\":1951:1953   */\n      0x20\n        /* \"#utility.yul\":1940:1949   */\n      dup3\n        /* \"#utility.yul\":1936:1954   */\n      add\n        /* \"#utility.yul\":1928:1954   */\n      swap1\n      pop\n        /* \"#utility.yul\":2000:2009   */\n      dup2\n        /* \"#utility.yul\":1994:1998   */\n      dup2\n        /* \"#utility.yul\":1990:2010   */\n      sub\n        /* \"#utility.yul\":1986:1987   */\n      0x00\n        /* \"#utility.yul\":1975:1984   */\n      dup4\n        /* \"#utility.yul\":1971:1988   */\n      add\n        /* \"#utility.yul\":1964:2011   */\n      mstore\n        /* \"#utility.yul\":2028:2159   */\n      tag_69\n        /* \"#utility.yul\":2154:2158   */\n      dup2\n        /* \"#utility.yul\":2028:2159   */\n      tag_42\n      jump\t// in\n    tag_69:\n        /* \"#utility.yul\":2020:2159   */\n      swap1\n      pop\n        /* \"#utility.yul\":1747:2166   */\n      swap2\n      swap1\n      pop\n      jump\t// out\n        /* \"#utility.yul\":2172:2338   */\n    tag_43:\n        /* \"#utility.yul\":2312:2330   */\n      0x416c726561647920617070726f76656400000000000000000000000000000000\n        /* \"#utility.yul\":2308:2309   */\n      0x00\n        /* \"#utility.yul\":2300:2306   */\n      dup3\n        /* \"#utility.yul\":2296:2310   */\n      add\n        /* \"#utility.yul\":2289:2331   */\n      mstore\n        /* \"#utility.yul\":2172:2338   */\n      pop\n      jump\t// out\n        /* \"#utility.yul\":2344:2710   */\n    tag_44:\n        /* \"#utility.yul\":2486:2489   */\n      0x00\n        /* \"#utility.yul\":2507:2574   */\n      tag_72\n        /* \"#utility.yul\":2571:2573   */\n      0x10\n        /* \"#utility.yul\":2566:2569   */\n      dup4\n        /* \"#utility.yul\":2507:2574   */\n      tag_40\n      jump\t// in\n    tag_72:\n        /* \"#utility.yul\":2500:2574   */\n      swap2\n      pop\n        /* \"#utility.yul\":2583:2676   */\n      tag_73\n        /* \"#utility.yul\":2672:2675   */\n      dup3\n        /* \"#utility.yul\":2583:2676   */\n      tag_43\n      jump\t// in\n    tag_73:\n        /* \"#utility.yul\":2701:2703   */\n      0x20\n        /* \"#utility.yul\":2696:2699   */\n      dup3\n        /* \"#utility.yul\":2692:2704   */\n      add\n        /* \"#utility.yul\":2685:2704   */\n      swap1\n      pop\n        /* \"#utility.yul\":2344:2710   */\n      swap2\n      swap1\n      pop\n      jump\t// out\n        /* \"#utility.yul\":2716:3135   */\n    tag_26:\n        /* \"#utility.yul\":2882:2886   */\n      0x00\n        /* \"#utility.yul\":2920:2922   */\n      0x20\n        /* \"#utility.yul\":2909:2918   */\n      dup3\n        /* \"#utility.yul\":2905:2923   */\n      add\n        /* \"#utility.yul\":2897:2923   */\n      swap1\n      pop\n        /* \"#utility.yul\":2969:2978   */\n      dup2\n        /* \"#utility.yul\":2963:2967   */\n      dup2\n        /* \"#utility.yul\":2959:2979   */\n      sub\n        /* \"#utility.yul\":2955:2956   */\n      0x00\n        /* \"#utility.yul\":2944:2953   */\n      dup4\n        /* \"#utility.yul\":2940:2957   */\n      add\n        /* \"#utility.yul\":2933:2980   */\n      mstore\n        /* \"#utility.yul\":2997:3128   */\n      tag_75\n        /* \"#utility.yul\":3123:3127   */\n      dup2\n        /* \"#utility.yul\":2997:3128   */\n      tag_44\n      jump\t// in\n    tag_75:\n        /* \"#utility.yul\":2989:3128   */\n      swap1\n      pop\n        /* \"#utility.yul\":2716:3135   */\n      swap2\n      swap1\n      pop\n      jump\t// out\n        /* \"#utility.yul\":3141:3288   */\n    tag_45:\n        /* \"#utility.yul\":3242:3253   */\n      0x00\n        /* \"#utility.yul\":3279:3282   */\n      dup2\n        /* \"#utility.yul\":3264:3282   */\n      swap1\n      pop\n        /* \"#utility.yul\":3141:3288   */\n      swap3\n      swap2\n      pop\n      pop\n      jump\t// out\n        /* \"#utility.yul\":3294:3408   */\n    tag_46:\n      pop\n      jump\t// out\n        /* \"#utility.yul\":3414:3812   */\n    tag_47:\n        /* \"#utility.yul\":3573:3576   */\n      0x00\n        /* \"#utility.yul\":3594:3677   */\n      tag_79\n        /* \"#utility.yul\":3675:3676   */\n      0x00\n        /* \"#utility.yul\":3670:3673   */\n      dup4\n        /* \"#utility.yul\":3594:3677   */\n      tag_45\n      jump\t// in\n    tag_79:\n        /* \"#utility.yul\":3587:3677   */\n      swap2\n      pop\n        /* \"#utility.yul\":3686:3779   */\n      tag_80\n        /* \"#utility.yul\":3775:3778   */\n      dup3\n        /* \"#utility.yul\":3686:3779   */\n      tag_46\n      jump\t// in\n    tag_80:\n        /* \"#utility.yul\":3804:3805   */\n      0x00\n        /* \"#utility.yul\":3799:3802   */\n      dup3\n        /* \"#utility.yul\":3795:3806   */\n      add\n        /* \"#utility.yul\":3788:3806   */\n      swap1\n      pop\n        /* \"#utility.yul\":3414:3812   */\n      swap2\n      swap1\n      pop\n      jump\t// out\n        /* \"#utility.yul\":3818:4197   */\n    tag_28:\n        /* \"#utility.yul\":4002:4005   */\n      0x00\n        /* \"#utility.yul\":4024:4171   */\n      tag_82\n        /* \"#utility.yul\":4167:4170   */\n      dup3\n        /* \"#utility.yul\":4024:4171   */\n      tag_47\n      jump\t// in\n    tag_82:\n        /* \"#utility.yul\":4017:4171   */\n      swap2\n      pop\n        /* \"#utility.yul\":4188:4191   */\n      dup2\n        /* \"#utility.yul\":4181:4191   */\n      swap1\n      pop\n        /* \"#utility.yul\":3818:4197   */\n      swap2\n      swap1\n      pop\n      jump\t// out\n        /* \"#utility.yul\":4203:4368   */\n    tag_48:\n        /* \"#utility.yul\":4343:4360   */\n      0x5472616e73666572206661696c65640000000000000000000000000000000000\n        /* \"#utility.yul\":4339:4340   */\n      0x00\n        /* \"#utility.yul\":4331:4337   */\n      dup3\n        /* \"#utility.yul\":4327:4341   */\n      add\n        /* \"#utility.yul\":4320:4361   */\n      mstore\n        /* \"#utility.yul\":4203:4368   */\n      pop\n      jump\t// out\n        /* \"#utility.yul\":4374:4740   */\n    tag_49:\n        /* \"#utility.yul\":4516:4519   */\n      0x00\n        /* \"#utility.yul\":4537:4604   */\n      tag_85\n        /* \"#utility.yul\":4601:4603   */\n      0x0f\n        /* \"#utility.yul\":4596:4599   */\n      dup4\n        /* \"#utility.yul\":4537:4604   */\n      tag_40\n      jump\t// in\n    tag_85:\n        /* \"#utility.yul\":4530:4604   */\n      swap2\n      pop\n        /* \"#utility.yul\":4613:4706   */\n      tag_86\n        /* \"#utility.yul\":4702:4705   */\n      dup3\n        /* \"#utility.yul\":4613:4706   */\n      tag_48\n      jump\t// in\n    tag_86:\n        /* \"#utility.yul\":4731:4733   */\n      0x20\n        /* \"#utility.yul\":4726:4729   */\n      dup3\n        /* \"#utility.yul\":4722:4734   */\n      add\n        /* \"#utility.yul\":4715:4734   */\n      swap1\n      pop\n        /* \"#utility.yul\":4374:4740   */\n      swap2\n      swap1\n      pop\n      jump\t// out\n        /* \"#utility.yul\":4746:5165   */\n    tag_34:\n        /* \"#utility.yul\":4912:4916   */\n      0x00\n        /* \"#utility.yul\":4950:4952   */\n      0x20\n        /* \"#utility.yul\":4939:4948   */\n      dup3\n        /* \"#utility.yul\":4935:4953   */\n      add\n        /* \"#utility.yul\":4927:4953   */\n      swap1\n      pop\n        /* \"#utility.yul\":4999:5008   */\n      dup2\n        /* \"#utility.yul\":4993:4997   */\n      dup2\n        /* \"#utility.yul\":4989:5009   */\n      sub\n        /* \"#utility.yul\":4985:4986   */\n      0x00\n        /* \"#utility.yul\":4974:4983   */\n      dup4\n        /* \"#utility.yul\":4970:4987   */\n      add\n        /* \"#utility.yul\":4963:5010   */\n      mstore\n        /* \"#utility.yul\":5027:5158   */\n      tag_88\n        /* \"#utility.yul\":5153:5157   */\n      dup2\n        /* \"#utility.yul\":5027:5158   */\n      tag_49\n      jump\t// in\n    tag_88:\n        /* \"#utility.yul\":5019:5158   */\n      swap1\n      pop\n        /* \"#utility.yul\":4746:5165   */\n      swap2\n      swap1\n      pop\n      jump\t// out\n\n    auxdata: 0xa264697066735822122085bcc721a20b915ba2cac4323b58206f4d786fa6bb7d8d38554f1f0d76840b5764736f6c634300081a0033\n}\n",
				"bytecode": {
					"linkReferences": {},
					"object": "60806040526040516107ea3803806107ea83398181016040528101906100259190610199565b5f3411610067576040517f08c379a000000000000000000000000000000000000000000000000000000000815260040161005e90610231565b60405180910390fd5b815f806101000a81548173ffffffffffffffffffffffffffffffffffffffff021916908373ffffffffffffffffffffffffffffffffffffffff1602179055508060015f6101000a81548173ffffffffffffffffffffffffffffffffffffffff021916908373ffffffffffffffffffffffffffffffffffffffff1602179055503373ffffffffffffffffffffffffffffffffffffffff167f2da466a7b24304f47e87fa2e1e5a81b9831ce54fec19055ce277ca2f39ba42c43460405161012c9190610267565b60405180910390a25050610280565b5f80fd5b5f73ffffffffffffffffffffffffffffffffffffffff82169050919050565b5f6101688261013f565b9050919050565b6101788161015e565b8114610182575f80fd5b50565b5f815190506101938161016f565b92915050565b5f80604083850312156101af576101ae61013b565b5b5f6101bc85828601610185565b92505060206101cd85828601610185565b9150509250929050565b5f82825260208201905092915050565b7f4465706f736974206d757374206265206e6f6e2d7a65726f00000000000000005f82015250565b5f61021b6018836101d7565b9150610226826101e7565b602082019050919050565b5f6020820190508181035f8301526102488161020f565b9050919050565b5f819050919050565b6102618161024f565b82525050565b5f60208201905061027a5f830184610258565b92915050565b61055d8061028d5f395ff3fe608060405234801561000f575f80fd5b506004361061004a575f3560e01c806312424e3f1461004e57806328f371aa1461005857806338af3eed14610076578063fe25e00a14610094575b5f80fd5b6100566100b2565b005b6100606102b8565b60405161006d919061032d565b60405180910390f35b61007e6102cb565b60405161008b9190610385565b60405180910390f35b61009c6102f0565b6040516100a99190610385565b60405180910390f35b5f8054906101000a900473ffffffffffffffffffffffffffffffffffffffff1673ffffffffffffffffffffffffffffffffffffffff163373ffffffffffffffffffffffffffffffffffffffff161461013f576040517f08c379a0000000000000000000000000000000000000000000000000000000008152600401610136906103f8565b60405180910390fd5b600160149054906101000a900460ff161561018f576040517f08c379a000000000000000000000000000000000000000000000000000000000815260040161018690610460565b60405180910390fd5b60018060146101000a81548160ff0219169083151502179055505f60015f9054906101000a900473ffffffffffffffffffffffffffffffffffffffff1673ffffffffffffffffffffffffffffffffffffffff16476040516101ef906104ab565b5f6040518083038185875af1925050503d805f8114610229576040519150601f19603f3d011682016040523d82523d5f602084013e61022e565b606091505b5050905080610272576040517f08c379a000000000000000000000000000000000000000000000000000000000815260040161026990610509565b60405180910390fd5b3373ffffffffffffffffffffffffffffffffffffffff167f5d91bd0cecc45fef102af61de92c5462fadc884a5ce9d21c15e8a85198f2349e60405160405180910390a250565b600160149054906101000a900460ff1681565b60015f9054906101000a900473ffffffffffffffffffffffffffffffffffffffff1681565b5f8054906101000a900473ffffffffffffffffffffffffffffffffffffffff1681565b5f8115159050919050565b61032781610313565b82525050565b5f6020820190506103405f83018461031e565b92915050565b5f73ffffffffffffffffffffffffffffffffffffffff82169050919050565b5f61036f82610346565b9050919050565b61037f81610365565b82525050565b5f6020820190506103985f830184610376565b92915050565b5f82825260208201905092915050565b7f4f6e6c7920617262697465722063616e20617070726f766500000000000000005f82015250565b5f6103e260188361039e565b91506103ed826103ae565b602082019050919050565b5f6020820190508181035f83015261040f816103d6565b9050919050565b7f416c726561647920617070726f766564000000000000000000000000000000005f82015250565b5f61044a60108361039e565b915061045582610416565b602082019050919050565b5f6020820190508181035f8301526104778161043e565b9050919050565b5f81905092915050565b50565b5f6104965f8361047e565b91506104a182610488565b5f82019050919050565b5f6104b58261048b565b9150819050919050565b7f5472616e73666572206661696c656400000000000000000000000000000000005f82015250565b5f6104f3600f8361039e565b91506104fe826104bf565b602082019050919050565b5f6020820190508181035f830152610520816104e7565b905091905056fea264697066735822122085bcc721a20b915ba2cac4323b58206f4d786fa6bb7d8d38554f1f0d76840b5764736f6c634300081a0033",
					"opcodes": "PUSH1 0x80 PUSH1 0x40 MSTORE PUSH1 0x40 MLOAD PUSH2 0x7EA CODESIZE SUB DUP1 PUSH2 0x7EA DUP4 CODECOPY DUP2 DUP2 ADD PUSH1 0x40 MSTORE DUP2 ADD SWAP1 PUSH2 0x25 SWAP2 SWAP1 PUSH2 0x199 JUMP JUMPDEST PUSH0 CALLVALUE GT PUSH2 0x67 JUMPI PUSH1 0x40 MLOAD PUSH32 0x8C379A000000000000000000000000000000000000000000000000000000000 DUP2 MSTORE PUSH1 0x4 ADD PUSH2 0x5E SWAP1 PUSH2 0x231 JUMP JUMPDEST PUSH1 0x40 MLOAD DUP1 SWAP2 SUB SWAP1 REVERT JUMPDEST DUP2 PUSH0 DUP1 PUSH2 0x100 EXP DUP2 SLOAD DUP2 PUSH20 0xFFFFFFFFFFFFFFFFFFFFFFFFFFFFFFFFFFFFFFFF MUL NOT AND SWAP1 DUP4 PUSH20 0xFFFFFFFFFFFFFFFFFFFFFFFFFFFFFFFFFFFFFFFF AND MUL OR SWAP1 SSTORE POP DUP1 PUSH1 0x1 PUSH0 PUSH2 0x100 EXP DUP2 SLOAD DUP2 PUSH20 0xFFFFFFFFFFFFFFFFFFFFFFFFFFFFFFFFFFFFFFFF MUL NOT AND SWAP1 DUP4 PUSH20 0xFFFFFFFFFFFFFFFFFFFFFFFFFFFFFFFFFFFFFFFF AND MUL OR SWAP1 SSTORE POP CALLER PUSH20 0xFFFFFFFFFFFFFFFFFFFFFFFFFFFFFFFFFFFFFFFF AND PUSH32 0x2DA466A7B24304F47E87FA2E1E5A81B9831CE54FEC19055CE277CA2F39BA42C4 CALLVALUE PUSH1 0x40 MLOAD PUSH2 0x12C SWAP2 SWAP1 PUSH2 0x267 JUMP JUMPDEST PUSH1 0x40 MLOAD DUP1 SWAP2 SUB SWAP1 LOG2 POP POP PUSH2 0x280 JUMP JUMPDEST PUSH0 DUP1 REVERT JUMPDEST PUSH0 PUSH20 0xFFFFFFFFFFFFFFFFFFFFFFFFFFFFFFFFFFFFFFFF DUP3 AND SWAP1 POP SWAP2 SWAP1 POP JUMP JUMPDEST PUSH0 PUSH2 0x168 DUP3 PUSH2 0x13F JUMP JUMPDEST SWAP1 POP SWAP2 SWAP1 POP JUMP JUMPDEST PUSH2 0x178 DUP2 PUSH2 0x15E JUMP JUMPDEST DUP2 EQ PUSH2 0x182 JUMPI PUSH0 DUP1 REVERT JUMPDEST POP JUMP JUMPDEST PUSH0 DUP2 MLOAD SWAP1 POP PUSH2 0x193 DUP2 PUSH2 0x16F JUMP JUMPDEST SWAP3 SWAP2 POP POP JUMP JUMPDEST PUSH0 DUP1 PUSH1 0x40 DUP4 DUP6 SUB SLT ISZERO PUSH2 0x1AF JUMPI PUSH2 0x1AE PUSH2 0x13B JUMP JUMPDEST JUMPDEST PUSH0 PUSH2 0x1BC DUP6 DUP3 DUP7 ADD PUSH2 0x185 JUMP JUMPDEST SWAP3 POP POP PUSH1 0x20 PUSH2 0x1CD DUP6 DUP3 DUP7 ADD PUSH2 0x185 JUMP JUMPDEST SWAP2 POP POP SWAP3 POP SWAP3 SWAP1 POP JUMP JUMPDEST PUSH0 DUP3 DUP3 MSTORE PUSH1 0x20 DUP3 ADD SWAP1 POP SWAP3 SWAP2 POP POP JUMP JUMPDEST PUSH32 0x4465706F736974206D757374206265206E6F6E2D7A65726F0000000000000000 PUSH0 DUP3 ADD MSTORE POP JUMP JUMPDEST PUSH0 PUSH2 0x21B PUSH1 0x18 DUP4 PUSH2 0x1D7 JUMP JUMPDEST SWAP2 POP PUSH2 0x226 DUP3 PUSH2 0x1E7 JUMP JUMPDEST PUSH1 0x20 DUP3 ADD SWAP1 POP SWAP2 SWAP1 POP JUMP JUMPDEST PUSH0 PUSH1 0x20 DUP3 ADD SWAP1 POP DUP2 DUP2 SUB PUSH0 DUP4 ADD MSTORE PUSH2 0x248 DUP2 PUSH2 0x20F JUMP JUMPDEST SWAP1 POP SWAP2 SWAP1 POP JUMP JUMPDEST PUSH0 DUP2 SWAP1 POP SWAP2 SWAP1 POP JUMP JUMPDEST PUSH2 0x261 DUP2 PUSH2 0x24F JUMP JUMPDEST DUP3 MSTORE POP POP JUMP JUMPDEST PUSH0 PUSH1 0x20 DUP3 ADD SWAP1 POP PUSH2 0x27A PUSH0 DUP4 ADD DUP5 PUSH2 0x258 JUMP JUMPDEST SWAP3 SWAP2 POP POP JUMP JUMPDEST PUSH2 0x55D DUP1 PUSH2 0x28D PUSH0 CODECOPY PUSH0 RETURN INVALID PUSH1 0x80 PUSH1 0x40 MSTORE CALLVALUE DUP1 ISZERO PUSH2 0xF JUMPI PUSH0 DUP1 REVERT JUMPDEST POP PUSH1 0x4 CALLDATASIZE LT PUSH2 0x4A JUMPI PUSH0 CALLDATALOAD PUSH1 0xE0 SHR DUP1 PUSH4 0x12424E3F EQ PUSH2 0x4E JUMPI DUP1 PUSH4 0x28F371AA EQ PUSH2 0x58 JUMPI DUP1 PUSH4 0x38AF3EED EQ PUSH2 0x76 JUMPI DUP1 PUSH4 0xFE25E00A EQ PUSH2 0x94 JUMPI JUMPDEST PUSH0 DUP1 REVERT JUMPDEST PUSH2 0x56 PUSH2 0xB2 JUMP JUMPDEST STOP JUMPDEST PUSH2 0x60 PUSH2 0x2B8 JUMP JUMPDEST PUSH1 0x40 MLOAD PUSH2 0x6D SWAP2 SWAP1 PUSH2 0x32D JUMP JUMPDEST PUSH1 0x40 MLOAD DUP1 SWAP2 SUB SWAP1 RETURN JUMPDEST PUSH2 0x7E PUSH2 0x2CB JUMP JUMPDEST PUSH1 0x40 MLOAD PUSH2 0x8B SWAP2 SWAP1 PUSH2 0x385 JUMP JUMPDEST PUSH1 0x40 MLOAD DUP1 SWAP2 SUB SWAP1 RETURN JUMPDEST PUSH2 0x9C PUSH2 0x2F0 JUMP JUMPDEST PUSH1 0x40 MLOAD PUSH2 0xA9 SWAP2 SWAP1 PUSH2 0x385 JUMP JUMPDEST PUSH1 0x40 MLOAD DUP1 SWAP2 SUB SWAP1 RETURN JUMPDEST PUSH0 DUP1 SLOAD SWAP1 PUSH2 0x100 EXP SWAP1 DIV PUSH20 0xFFFFFFFFFFFFFFFFFFFFFFFFFFFFFFFFFFFFFFFF AND PUSH20 0xFFFFFFFFFFFFFFFFFFFFFFFFFFFFFFFFFFFFFFFF AND CALLER PUSH20 0xFFFFFFFFFFFFFFFFFFFFFFFFFFFFFFFFFFFFFFFF AND EQ PUSH2 0x13F JUMPI PUSH1 0x40 MLOAD PUSH32 0x8C379A000000000000000000000000000000000000000000000000000000000 DUP2 MSTORE PUSH1 0x4 ADD PUSH2 0x136 SWAP1 PUSH2 0x3F8 JUMP JUMPDEST PUSH1 0x40 MLOAD DUP1 SWAP2 SUB SWAP1 REVERT JUMPDEST PUSH1 0x1 PUSH1 0x14 SWAP1 SLOAD SWAP1 PUSH2 0x100 EXP SWAP1 DIV PUSH1 0xFF AND ISZERO PUSH2 0x18F JUMPI PUSH1 0x40 MLOAD PUSH32 0x8C379A000000000000000000000000000000000000000000000000000000000 DUP2 MSTORE PUSH1 0x4 ADD PUSH2 0x186 SWAP1 PUSH2 0x460 JUMP JUMPDEST PUSH1 0x40 MLOAD DUP1 SWAP2 SUB SWAP1 REVERT JUMPDEST PUSH1 0x1 DUP1 PUSH1 0x14 PUSH2 0x100 EXP DUP2 SLOAD DUP2 PUSH1 0xFF MUL NOT AND SWAP1 DUP4 ISZERO ISZERO MUL OR SWAP1 SSTORE POP PUSH0 PUSH1 0x1 PUSH0 SWAP1 SLOAD SWAP1 PUSH2 0x100 EXP SWAP1 DIV PUSH20 0xFFFFFFFFFFFFFFFFFFFFFFFFFFFFFFFFFFFFFFFF AND PUSH20 0xFFFFFFFFFFFFFFFFFFFFFFFFFFFFFFFFFFFFFFFF AND SELFBALANCE PUSH1 0x40 MLOAD PUSH2 0x1EF SWAP1 PUSH2 0x4AB JUMP JUMPDEST PUSH0 PUSH1 0x40 MLOAD DUP1 DUP4 SUB DUP2 DUP6 DUP8 GAS CALL SWAP3 POP POP POP RETURNDATASIZE DUP1 PUSH0 DUP2 EQ PUSH2 0x229 JUMPI PUSH1 0x40 MLOAD SWAP2 POP PUSH1 0x1F NOT PUSH1 0x3F RETURNDATASIZE ADD AND DUP3 ADD PUSH1 0x40 MSTORE RETURNDATASIZE DUP3 MSTORE RETURNDATASIZE PUSH0 PUSH1 0x20 DUP5 ADD RETURNDATACOPY PUSH2 0x22E JUMP JUMPDEST PUSH1 0x60 SWAP2 POP JUMPDEST POP POP SWAP1 POP DUP1 PUSH2 0x272 JUMPI PUSH1 0x40 MLOAD PUSH32 0x8C379A000000000000000000000000000000000000000000000000000000000 DUP2 MSTORE PUSH1 0x4 ADD PUSH2 0x269 SWAP1 PUSH2 0x509 JUMP JUMPDEST PUSH1 0x40 MLOAD DUP1 SWAP2 SUB SWAP1 REVERT JUMPDEST CALLER PUSH20 0xFFFFFFFFFFFFFFFFFFFFFFFFFFFFFFFFFFFFFFFF AND PUSH32 0x5D91BD0CECC45FEF102AF61DE92C5462FADC884A5CE9D21C15E8A85198F2349E PUSH1 0x40 MLOAD PUSH1 0x40 MLOAD DUP1 SWAP2 SUB SWAP1 LOG2 POP JUMP JUMPDEST PUSH1 0x1 PUSH1 0x14 SWAP1 SLOAD SWAP1 PUSH2 0x100 EXP SWAP1 DIV PUSH1 0xFF AND DUP2 JUMP JUMPDEST PUSH1 0x1 PUSH0 SWAP1 SLOAD SWAP1 PUSH2 0x100 EXP SWAP1 DIV PUSH20 0xFFFFFFFFFFFFFFFFFFFFFFFFFFFFFFFFFFFFFFFF AND DUP2 JUMP JUMPDEST PUSH0 DUP1 SLOAD SWAP1 PUSH2 0x100 EXP SWAP1 DIV PUSH20 0xFFFFFFFFFFFFFFFFFFFFFFFFFFFFFFFFFFFFFFFF AND DUP2 JUMP JUMPDEST PUSH0 DUP2 ISZERO ISZERO SWAP1 POP SWAP2 SWAP1 POP JUMP JUMPDEST PUSH2 0x327 DUP2 PUSH2 0x313 JUMP JUMPDEST DUP3 MSTORE POP POP JUMP JUMPDEST PUSH0 PUSH1 0x20 DUP3 ADD SWAP1 POP PUSH2 0x340 PUSH0 DUP4 ADD DUP5 PUSH2 0x31E JUMP JUMPDEST SWAP3 SWAP2 POP POP JUMP JUMPDEST PUSH0 PUSH20 0xFFFFFFFFFFFFFFFFFFFFFFFFFFFFFFFFFFFFFFFF DUP3 AND SWAP1 POP SWAP2 SWAP1 POP JUMP JUMPDEST PUSH0 PUSH2 0x36F DUP3 PUSH2 0x346 JUMP JUMPDEST SWAP1 POP SWAP2 SWAP1 POP JUMP JUMPDEST PUSH2 0x37F DUP2 PUSH2 0x365 JUMP JUMPDEST DUP3 MSTORE POP POP JUMP JUMPDEST PUSH0 PUSH1 0x20 DUP3 ADD SWAP1 POP PUSH2 0x398 PUSH0 DUP4 ADD DUP5 PUSH2 0x376 JUMP JUMPDEST SWAP3 SWAP2 POP POP JUMP JUMPDEST PUSH0 DUP3 DUP3 MSTORE PUSH1 0x20 DUP3 ADD SWAP1 POP SWAP3 SWAP2 POP POP JUMP JUMPDEST PUSH32 0x4F6E6C7920617262697465722063616E20617070726F76650000000000000000 PUSH0 DUP3 ADD MSTORE POP JUMP JUMPDEST PUSH0 PUSH2 0x3E2 PUSH1 0x18 DUP4 PUSH2 0x39E JUMP JUMPDEST SWAP2 POP PUSH2 0x3ED DUP3 PUSH2 0x3AE JUMP JUMPDEST PUSH1 0x20 DUP3 ADD SWAP1 POP SWAP2 SWAP1 POP JUMP JUMPDEST PUSH0 PUSH1 0x20 DUP3 ADD SWAP1 POP DUP2 DUP2 SUB PUSH0 DUP4 ADD MSTORE PUSH2 0x40F DUP2 PUSH2 0x3D6 JUMP JUMPDEST SWAP1 POP SWAP2 SWAP1 POP JUMP JUMPDEST PUSH32 0x416C726561647920617070726F76656400000000000000000000000000000000 PUSH0 DUP3 ADD MSTORE POP JUMP JUMPDEST PUSH0 PUSH2 0x44A PUSH1 0x10 DUP4 PUSH2 0x39E JUMP JUMPDEST SWAP2 POP PUSH2 0x455 DUP3 PUSH2 0x416 JUMP JUMPDEST PUSH1 0x20 DUP3 ADD SWAP1 POP SWAP2 SWAP1 POP JUMP JUMPDEST PUSH0 PUSH1 0x20 DUP3 ADD SWAP1 POP DUP2 DUP2 SUB PUSH0 DUP4 ADD MSTORE PUSH2 0x477 DUP2 PUSH2 0x43E JUMP JUMPDEST SWAP1 POP SWAP2 SWAP1 POP JUMP JUMPDEST PUSH0 DUP2 SWAP1 POP SWAP3 SWAP2 POP POP JUMP JUMPDEST POP JUMP JUMPDEST PUSH0 PUSH2 0x496 PUSH0 DUP4 PUSH2 0x47E JUMP JUMPDEST SWAP2 POP PUSH2 0x4A1 DUP3 PUSH2 0x488 JUMP JUMPDEST PUSH0 DUP3 ADD SWAP1 POP SWAP2 SWAP1 POP JUMP JUMPDEST PUSH0 PUSH2 0x4B5 DUP3 PUSH2 0x48B JUMP JUMPDEST SWAP2 POP DUP2 SWAP1 POP SWAP2 SWAP1 POP JUMP JUMPDEST PUSH32 0x5472616E73666572206661696C65640000000000000000000000000000000000 PUSH0 DUP3 ADD MSTORE POP JUMP JUMPDEST PUSH0 PUSH2 0x4F3 PUSH1 0xF DUP4 PUSH2 0x39E JUMP JUMPDEST SWAP2 POP PUSH2 0x4FE DUP3 PUSH2 0x4BF JUMP JUMPDEST PUSH1 0x20 DUP3 ADD SWAP1 POP SWAP2 SWAP1 POP JUMP JUMPDEST PUSH0 PUSH1 0x20 DUP3 ADD SWAP1 POP DUP2 DUP2 SUB PUSH0 DUP4 ADD MSTORE PUSH2 0x520 DUP2 PUSH2 0x4E7 JUMP JUMPDEST SWAP1 POP SWAP2 SWAP1 POP JUMP INVALID LOG2 PUSH5 0x6970667358 0x22 SLT KECCAK256 DUP6 0xBC 0xC7 0x21 LOG2 SIGNEXTEND SWAP2 JUMPDEST LOG2 0xCA 0xC4 ORIGIN EXTCODESIZE PC KECCAK256 PUSH16 0x4D786FA6BB7D8D38554F1F0D76840B57 PUSH5 0x736F6C6343 STOP ADDMOD BYTE STOP CALLER "
				},
				"gasEstimates": {
					"creation": {
						"codeDepositCost": "274600",
						"executionCost": "infinite",
						"totalCost": "infinite"
					},
					"external": {
						"approve()": "infinite",
						"arbiter()": "2549",
						"beneficiary()": "2530",
						"isApproved()": "2517"
					}
				},
				"methodIdentifiers": {
					"approve()": "12424e3f",
					"arbiter()": "fe25e00a",
					"beneficiary()": "38af3eed",
					"isApproved()": "28f371aa"
				}
			},
			"storageLayout": {
				"storage": [
					{
						"astId": 3,
						"contract": "Escrow.sol:SimpleEscrow",
						"label": "arbiter",
						"offset": 0,
						"slot": "0",
						"type": "t_address"
					},
					{
						"astId": 5,
						"contract": "Escrow.sol:SimpleEscrow",
						"label": "beneficiary",
						"offset": 0,
						"slot": "1",
						"type": "t_address"
					},
					{
						"astId": 7,
						"contract": "Escrow.sol:SimpleEscrow",
						"label": "isApproved",
						"offset": 20,
						"slot": "1",
						"type": "t_bool"
					}
				],
				"types": {
					"t_address": {
						"encoding": "inplace",
						"label": "address",
						"numberOfBytes": "20"
					},
					"t_bool": {
						"encoding": "inplace",
						"label": "bool",
						"numberOfBytes": "1"
					}
				}
			},
			"userdoc": {
				"kind": "user",
				"methods": {},
				"version": 1
			}
		}
	}
}